:020000040800F2
:1000000028680024AD020008A1FD000861B70008BF
:10001000B1F8000885240008694A010800000000C2
:100020000000000000000000000000004D23010857
:100030002537000800000000B11B0108A5280108B1
:10004000C7020008C7020008C7020008C70200086C
:10005000C7020008C7020008C7020008C70200085C
:10006000C7020008C7020008C7020008592A000892
:10007000692A0008792A0008892A0008992A0008B4
:10008000A92A0008B92A0008C7020008E5390008B3
:10009000F5390008C7020008C7020008C7020008B7
:1000A000C7020008C7020008C7020008C70200080C
:1000B000C7020008C7020008C7020008C7020008FC
:1000C000C7020008C7020008C7020008C5200108CF
:1000D000C7020008B9450108194A0108294A010860
:1000E000C7020008C702000800000000C70200089D
:1000F0008D2E01087D2E0108C7020008C92A0008BC
:10010000C7020008C7020008C7020008C7020008AB
:100110008D330108AD330108C7020008C70200088B
:10012000D92A0008E92A0008F92A0008092B000842
:10013000192B0008C7020008C7020008C702000800
:1001400000000000000000000000000000000000AF
:10015000292B0008392B0008C7020008494A01086A
:10016000C7020008C7020008C7020008C70200084B
:10017000C7020008C7020008C7020008C70200083B
:10018000C7020008C7020008BD330108CD330108CB
:10019000C7020008C7020008C7020008C70200081B
:1001A000C7020008C7020008C7020008C70200080B
:1001B000C7020008C7020008C7020008C7020008FB
:1001C000C7020008C7020008C7020008C7020008EB
:1001D000C7020008C7020008C7020008C7020008DB
:1001E000C7020008C7020008C7020008C7020008CB
:1001F000C7020008C7020008C7020008C7020008BB
:10020000C7020008C7020008C7020008C7020008AA
:10021000C7020008C7020008C7020008C70200089A
:10022000C7020008C7020008C7020008000000005B
:10023000C7020008C702000800000000C70200084B
:10024000C7020008C7020008C7020008C70200086A
:10025000C7020008C7020008C7020008C70200085A
:10026000C7020008C7020008C7020008C70200084A
:10027000C7020008C7020008C7020008000000000B
:10028000C7020008C7020008C702000800000000FB
:1002900000000000C7020008DFF80CD000F094FA5C
:1002A00000480047D190010828680024064880478C
:1002B00006480047FEE7FEE7FEE7FEE7FEE7FEE74B
:1002C000FEE7FEE7FEE7FEE7F929010899020008CC
:1002D0002DE9F05F0546002092469B46884606467B
:1002E000814640241BE0284641464746224600F00E
:1002F0008BF853465A46C01A914110D311461846FE
:10030000224600F016F82D1A67EB01084F462246E8
:100310000120002100F00DF817EB00094E41201ECE
:10032000A4F10104DFDC484631462A464346BDE8D5
:10033000F09F202A04DB203A00FA02F100207047E7
:100340009140C2F1200320FA03F319439040704713
:10035000202A06DBCB17203A41FA02F043EAE07389
:1003600006E041FA02F3D040C2F120029140084376
:100370001946704740EA01039B0703D009E008C90A
:10038000121F08C0042AFAD203E011F8013B00F85A
:10039000013B521EF9D27047D2B201E000F8012BA6
:1003A000491EFBD270470022F6E710B513460A46F5
:1003B00004461946FFF7F0FF204610BD421C10F816
:1003C000011B0029FBD1801A7047034611F8012B4D
:1003D00000F8012B002AF9D11846704730B50B46BA
:1003E000014600202022012409E021FA02F59D4265
:1003F00005D303FA02F5491B04FA02F52844151E39
:10040000A2F10102F1DC30BD202A04DB203A21FAFE
:1004100002F00021704721FA02F3D040C2F120021D
:1004200091400843194670472DE9FE4F804681EA06
:100430000300C00F0C46009021F0004123F000455E
:10044000B8EB0200A94105D24046214690461C4621
:100450000B46024623F00040104347D0270DC7F358
:100460000A00C3F30A510290401A019040286BDA47
:10047000C3F3130040F4801B0098924620B1002380
:10048000D2EB030A63EB0B0B01985946C0F1400213
:100490005046FFF74EFF06460D4650465946019A14
:1004A000FFF756FF10EB08006141002487EA115264
:1004B00084EAE7731A4340D0009A62B3019A012A92
:1004C0004FEA075215DC001B61EB02014FF00042BE
:1004D00002EA0752CDE90042001C41F58011324684
:1004E0002B4600F092F903B0BDE8F08F404621465C
:1004F000F9E7001B61EB0201001C41F580130018B5
:100500005B412018A2F5001747EB030140EAD570C4
:10051000B6196D4111E06D084FEA360645EAC0751F
:100520004FEA0752001B61EB0201001C41F58011EC
:1005300049084FEA30000019514132462B4603B0BA
:10054000BDE8F04F00F052B90098012240000023AE
:10055000D0EB020263EBE073009821464FEAE074AF
:10056000B8EB000061EB0401E9E783F000435BE7CF
:1005700081F0004158E72DE9FE4F81EA030404F0C1
:10058000004421F0004100944FF0000B23F00043A1
:1005900050EA01045ED052EA03045BD0C3F30A546C
:1005A000C1F30A552C44A4F2F3340194A0FB025485
:1005B000C1F3130141F48011C3F3130343F4801317
:1005C00001FB024400FB034E840A970A44EA81546B
:1005D00047EA8357A4FB076802958D0A05FB078548
:1005E0004FEA932C04FB0C542705029D4FEA065852
:1005F00047EA1637B5EB08056EEB070C870E920E2F
:1006000047EA811742EA8312A7FB0201B6EB0B010E
:1006100064EB00042B0D43EA0C335E1844EB1C50D2
:10062000DA465146E7FB0201C5F313044FEA0B33E8
:1006300043EA14534FEA0432019C43EA0603A4F14F
:100640000C040294009CCDE900B400F0DEF803B085
:10065000BDE8F08F00200146F9E72DE9F04D81EA71
:10066000030404F0004B21F0004514464FF0000A4B
:1006700023F0004150EA050220D054EA01021DD0C7
:10068000C5F30A570246C5F31303C1F31300C1F3C0
:100690000A5640F4801543F48013A7EB0608101B9C
:1006A000D64608F2FD3873EB050002D308F10108C5
:1006B00001E092185B41B8F1000F03DA0020014617
:1006C000BDE8F08D00204FF48011064684460EE010
:1006D000171B73EB050705D3121B63EB05030643DA
:1006E0004CEA010C49084FEA300092185B4150EA8D
:1006F0000107EDD152EA030012D082EA040083EA36
:100700000501084305D0101BAB4106D2012200238E
:1007100006E000224FF0004302E06FF001025310A8
:100720001AEB06004CEB085110EB0A0041EB0B01F1
:10073000BDE8F04D00F05AB870B521F00043034316
:100740000CD0C1F30A550024D5EB040564EB040377
:10075000D617AD1AB34102DB0020014670BD201848
:1007600041EB025170BDC1F30A52C1F3130140F2D3
:10077000FF3341F480119A4202DA002001467047AB
:1007800040F233439A42A2F2334202DC5242FFF774
:100790003BBEFFF7CEBD000030B5041E71F1000472
:1007A00004DB4FF00044404264EB0101141E73F17E
:1007B000000405DB1C464FF00043524263EB040388
:1007C000994208BF904230BD064C074D06E0E068F4
:1007D00040F0010394E8070098471034AC42F6D388
:1007E000FFF75EFD409F0108609F010810B5141ED1
:1007F00073F1000408DA401C41F1000192185B41DA
:100800001A4301D120F0010010BD2DE9F04D9246B0
:100810009B4611B1B1FA81F202E0B0FA80F22032C7
:100820009046FFF786FD04460F4640EA0A0041EA7B
:100830000B0153465A46084313D0114653EA0100B0
:1008400019D0C8F140025046FFF7DEFD05460E46BE
:10085000504659464246FFF76CFD084305D001203B
:1008600004E020463946BDE8F08D0020054346EA05
:10087000E0762C4337430A986305E40AA0EB0800AE
:100880000022FD0A44EA47540A3002D500200146FE
:10089000E9E7010510196941DDE9084500196941D9
:1008A000BDE8F04DA2E770B58C1810F8015B15F0AB
:1008B000070301D110F8013B2A1106D110F8012BD2
:1008C00003E010F8016B01F8016B5B1EF9D12B07F7
:1008D00005D40023521E0DD401F8013BFAE710F8AD
:1008E000013BCB1A921C03E013F8015B01F8015B9A
:1008F000521EF9D5A142D8D3002070BDB0EE401AE7
:10090000B1EE600AB4EEC01AF1EE10FA02D2B1EE06
:10091000600A7047B4EEE01AF1EE10FA02DDB0EEB4
:10092000600AF6E7B0EE410AF3E7000010B5044AAA
:10093000B2F85C10906D012206F09EFA10BD000026
:100940009401002410B5044AB2F85C10906D0022A6
:1009500006F092FA10BD00009401002410B5FFF7D4
:10096000F1FF802000F02CFE552000F029FE5520DC
:1009700000F026FE54490870FFF7D8FF9FED530A98
:1009800002F0C2FDFFF7DEFF802000F019FE5520C7
:1009900000F016FE552000F013FE4B490870FFF7DB
:1009A000C5FF9FED4A0A02F0AFFDFFF7CBFFB6216E
:1009B0007E2000F017FEFFF7B9FF9FED450A02F019
:1009C000A3FDFFF7BFFF802000F0FAFD552000F0E7
:1009D000F7FD552000F0F4FD3B490870FFF7A6FF36
:1009E0009FED3A0A02F090FDFFF7ACFF802000F087
:1009F000E7FD552000F0E4FD552000F0E1FD32490F
:100A00000870FFF793FF9FED310A02F07DFD2E483D
:100A100000781E2801D0FF2010BD00202D4908704D
:100A20004BE0FFF78FFF2B4A127802EB42022A4B72
:100A30001A445178274A127802EB4202985C00F07F
:100A4000D1FDFFF773FF9FED210A02F05DFDFFF777
:100A500079FF2049097801EB41011F4A515C41F0BF
:100A6000800000F0ADFD552000F0AAFD552000F0FB
:100A7000A7FD15490870FFF759FF9FED140A02F012
:100A800043FD1448007800EB4000134908444078C7
:100A90000D49097888420BD00E48007800EB4000E1
:100AA0000D49084480780D49097808430B490870BE
:100AB00008480078401C0749087006480078062856
:100AC000AFDB0020A8E70000340200246F12833A55
:100AD0000AD7A33D350200243A020024360200243E
:100AE00070B52DED048B8AB0044600200790089065
:100AF00009909FEDFE0AB0EE408A9FEDFC0AB0EE31
:100B0000409A9FEDFA0AF0EE409A02F041FDF84853
:100B100080ED000A00BF02F03BFDF548D0ED000A71
:100B200030EE600AF2EE080AB4EEE00AF1EE10FAD6
:100B300014DD9FEDF00A84ED060A9FEDEF0A84EDC7
:100B4000070A9FEDEE0A84ED080A9FEDED0AF0EE2C
:100B5000408A9FEDEC0A84ED090A42E29FEDEA0A21
:100B600002F0D2FC9FEDE10AF0EE408A9FEDDF0A31
:100B700084ED060A9FEDDD0A84ED070A9FEDDB0A8E
:100B800084ED080A002668E10023082207A9122044
:100B900000F0A6FC9DF81F00000200B29DF81E1098
:100BA00040EA010500EE105AB8EEC00AD748D0ED71
:100BB000000A20EE200A84ED000A9DF821000002C0
:100BC00000B29DF8201040EA010500EE105AB8EE80
:100BD000C00ACE48D0ED000A20EE200A84ED010ABA
:100BE0009DF82300000200B29DF8221040EA0105A2
:100BF00000EE105AB8EEC00AC448D0ED000A20EE4C
:100C0000200A84ED020AD4ED000A60EEA00A94EDF9
:100C1000011AD4ED011A41EE210A94ED021AD4ED25
:100C2000021A41EE210AB0EE600A15F01EFDB0EE88
:100C3000408A38EE880AF0EE408A0023082207A98D
:100C4000184600F081FC9DF81D000F2850D19DF83A
:100C50002000000200B29DF81F1040EA010500EEDE
:100C6000105AB8EEC00AAA48D0ED000A20EE200AB9
:100C700084ED030A94ED060AD4ED030A30EE200A4F
:100C800084ED060A9DF82200000200B29DF82110B2
:100C900040EA010500EE105AB8EEC00A9C48D0EDBB
:100CA000000A20EE200A84ED040A94ED070AD4ED30
:100CB000040A30EE200A84ED070A9DF824000002A1
:100CC00000B29DF8231040EA010500EE105AB8EE7C
:100CD000C00A8F48D0ED000A20EE200A84ED050AF4
:100CE00094ED080AD4ED050A30EE200A84ED080AD6
:100CF00006BBB0EE489AF0EE489A002017E004F1E7
:100D00000C0101EB800191ED000A04A901EB8001C7
:100D100081ED000A04F10C0101EB800191ED000A64
:100D200001A901EB800181ED000A411CC8B2032832
:100D3000E5DB49E0B4EEC98AF1EE10FA01DDB0EE70
:100D4000489AB4EEE98AF1EE10FA01D2F0EE489A30
:100D5000002037E004F10C0101EB800191ED000A65
:100D600004A901EB8001D1ED000AB4EEE00AF1EE36
:100D700010FA0ADD04F10C0101EB800191ED000A8B
:100D800004A901EB800181ED000A04F10C0101EBE3
:100D9000800191ED000A01A901EB8001D1ED000A6B
:100DA000B4EEE00AF1EE10FA0AD204F10C0101EB04
:100DB000800191ED000A01A901EB800181ED000A9B
:100DC000411CC8B20328C5DB39EE690A514880EDE1
:100DD000000A002012E004A901EB800191ED000A55
:100DE00001A901EB8001D1ED000A30EE600A4A4909
:100DF00001EB800181ED000A411CC8B20328EADB47
:100E0000444890ED000AF6EE000AB4EEE00AF1EE76
:100E100010FA1BDC404890ED000ADFED400AB4EE0A
:100E2000E00AF1EE10FA11DC90ED010ADFED3B0A69
:100E3000B4EEE00AF1EE10FA08DC90ED020ADFED04
:100E4000370AB4EEE00AF1EE10FA00DD0AE09FED99
:100E5000340A02F059FB701C86B232480088864280
:100E6000FFF692AE00BF2F48008800EE100AB8EEE1
:100E7000400AC8EE800AF0EE608A002015E004F116
:100E8000180101EB8001D1ED000A2649098800EE26
:100E9000101AB8EE400A80EE801A04F1180101EB36
:100EA000800181ED001A411CC8B20328E7DB002352
:100EB000022207A9222000F013FB9DF81E00C000AB
:100EC0009DF81F1040EA6115B5F5806F02DBA5F5AE
:100ED000006005B200EE105AF8EEC00AB4EE001A37
:100EE000B3EE070A00EE810A1EE0000000000000D9
:100EF00060020024F2FA88BB7779ABBBE1CB96B9EC
:100F00002C09244100008C420AD7A33B2C02002468
:100F100030020024680200241C2E00249A99193EF5
:100F20006F12033A6402002484ED090A32480088F3
:100F3000401C00B230490880304890ED000AF6EEBF
:100F4000000AB4EEE00AF1EE10FA3FF7E4AD9FEDCF
:100F50002C0A38EEC00AB0EEC00ADFED2A0AB4EE61
:100F6000E00AF1EE10FAF0DC274890ED000A5FEDA0
:100F7000150AB4EEE00AF1EE10FAE6DC90ED010A93
:100F80005FED1A0AB4EEE00AF1EE10FADDDC90ED46
:100F9000020A5FED1E0AB4EEE00AF1EE10FAD4DCAC
:100FA00094ED060AB0EEC00ADFED180AB4EEE00ACE
:100FB000F1EE10FAC9DC94ED070AB0EEC00ADFEDDD
:100FC000130AB4EEE00AF1EE10FABEDC94ED080A62
:100FD000B0EEC00ADFED0D0AB4EEE00AF1EE10FA51
:100FE000B3DC00BF9FED0A0AC0EE280AC4ED0B0A6D
:100FF0000AB0BDEC048B70BD3802002468020024E6
:10100000CDCC1C416666663F1C2E00240AD7233CCB
:10101000C3F51C4110B5044AB2F88410D2F8800020
:10102000012205F029FF10BD9401002410B5044AE7
:10103000B2F88410D2F88000002205F01DFF10BD28
:101040009401002410B5FFF7F1FF4949002000F09A
:10105000ABFAFFF7DFFF9FED470A02F055FAFFF703
:10106000E5FF4349002000F09FFAFFF7D3FF9FED13
:10107000410A02F049FAFFF7D9FFB621142000F027
:10108000B1FAFFF7C7FF9FED3C0A02F03DFAFFF708
:10109000CDFF3749002000F087FAFFF7BBFF9FED37
:1010A000350A02F031FAFFF7C1FF3149002000F0A4
:1010B0007BFAFFF7AFFF9FED2F0A02F025FA2C48CD
:1010C00000780F2801D0FF2010BD00202B490870A8
:1010D00047E0FFF7ABFF294A127802EB4202284BA8
:1010E0001A445178254A127802EB4202985C00F0CB
:1010F00079FAFFF78FFF9FED1F0A02F005FAFFF75D
:1011000095FF1E49097801EB41011D4A505C1849C1
:1011100000F04AFAFFF77EFF9FED160A02F0F4F99D
:101120001648007800EB4000154908444078104903
:101130000978884210D011480078401E0F49087085
:101140000846007800EB40000E49084480780E49BC
:10115000097808430C49087008480078401C074982
:101160000870064800780628B3DB0020ACE70000D2
:10117000340200246F12833A0AD7A33D35020024BB
:101180004C0200243A0200243602002470B50446C2
:10119000254605F148010F4811F022F805F17001CC
:1011A0000C4811F01DF800200B490870FFF7D6FB22
:1011B00009490978084308490870FFF743FF0649C1
:1011C00009780843044908702046FFF789FC024863
:1011D000007870BDC80300243602002470B50446B0
:1011E0000D46012D7DD101232222B949122000F0A4
:1011F00077F9B748C078000200B2B549897808434A
:10120000B44908800846B0F9000020860846B0F9C5
:10121000000000EE100AB8EEC00AAF48D0ED000A98
:1012200020EE200AD4ED0B0A20EE200A84ED000AFD
:10123000A7484079000200B2A54909790843A549A9
:1012400008800846B0F900106186B0F9000000EE91
:10125000100AB8EEC00AA048D0ED000A20EE200A1D
:10126000D4ED0B0A20EE200A84ED010A9848C079DB
:10127000000200B2964989790843964908800846D9
:10128000B0F90010A186B0F9000000EE100AB8EE27
:10129000C00A9148D0ED000A20EE200AD4ED0B0AD6
:1012A00020EE200A84ED020A8948807CC00088492B
:1012B000C97C40EA6110874908800846B0F90000FF
:1012C000B0F5806F05DB08460088A0F5006000B22D
:1012D00008808048B0F9000000EE100AF8EEC00A5D
:1012E00000E008E0B4EE001AB3EE070A00EE810A4F
:1012F00084ED0A0AEBE0002DFCD10023062274499C
:10130000122000F0EDF87248C078000200B2704977
:10131000897808436F4908800846B0F900002086A4
:101320000846B0F9000000EE100AB8EEC00A6A489C
:10133000D0ED000A20EE200AD4ED0B0A20EE200AA0
:1013400084ED000A62484079000200B260490979E0
:101350000843604908800846B0F900106186B0F97A
:10136000000000EE100AB8EEC00A5B48D0ED000A9B
:1013700020EE200AD4ED0B0A20EE200A84ED010AAB
:101380005348C079000200B2514989790843514954
:1013900008800846B0F90010A186B0F9000000EE00
:1013A000100AB8EEC00A4C48D0ED000A20EE200A20
:1013B000D4ED0B0A20EE200A84ED020A0023082255
:1013C0004349184600F0C0F8414840780F2854D1EE
:1013D0003F480079000200B23D49C97808433D49C1
:1013E00008800846B0F90000E08694ED060A084639
:1013F000B0F9000000EE900AF8EEE00A374890EDF0
:10140000001A10EE810A84ED030A31488079000247
:1014100000B22F49497908432E4908800846B0F99F
:101420000010218794ED070AB0F9000000EE900A41
:10143000F8EEE00A294890ED001A10EE810A84EDDA
:10144000040A2348007A000200B22149C9790843FE
:10145000204908800846B0F90010618794ED080A19
:10146000B0F9000000EE900AF8EEE00A1B4890ED9B
:10147000001A10EE810A84ED050A002302221449A5
:10148000222000F02DF812488078C0001049C97859
:1014900040EA61100F4908800846B0F90000B0F535
:1014A000806F05DB08460088A0F5006000B2088068
:1014B0000848B0F9000000EE100AF8EEC00AB4EED9
:1014C000001AB3EE070A00EE810A84ED0A0A70BD25
:1014D000282E00246C0200242C0200243002002458
:1014E000F8B505460F4614461E46FFF72BFA45F0A1
:1014F00080001349087045F080004870002004E027
:1015000055220F4B811C5A54401CA042F8DB66B98F
:101510004FF47A700B490090A31C3A4608680849BA
:1015200008F031F9FFF702FA08E0012E06D105496B
:10153000A31C3A460868024908F0AAFAF8BD000060
:10154000E02D0024C8030024F8B506460F461446D3
:101550001D4646F0800012490870002004E0552224
:101560000F4B411C5A54401CA042F8DBFFF75EFDB4
:1015700065B94FF47A700B490090631C3A460868CD
:10158000074908F000F9FFF745FD08E0012D06D1F5
:101590000449631C3A460868014908F079FAF8BD25
:1015A000FE2D0024C803002470B504460D4644F007
:1015B000800000F005F8552000F002F8287070BD9A
:1015C00001B582B04FF47A7005490090012301AA59
:1015D000086802A908F0D7F89DF804000EBD0000C5
:1015E000C803002470B505460C462846FFF7E8FFFF
:1015F0002046FFF7E5FF70BDF0EE401A31EEE00A3D
:1016000080ED060A90ED060A90ED002A20EE020A0F
:1016100080ED070A90ED080A90ED062AD0ED012A28
:1016200002EE220A80ED080A90ED020ABFEE002ABF
:1016300020EE020A20EE010A80ED090A90ED070A69
:1016400090ED082A30EE020A90ED092A30EE020AE7
:1016500080ED0A0A90ED0A0A70470000B0EE401AC9
:1016600031EE600A80ED060A90ED060AD0ED001A10
:1016700020EE210A80ED070A90ED080AD0ED061A47
:1016800090ED012A01EE820A80ED080A90ED060A2B
:10169000D0ED021A20EE210A80ED090A90ED060A2B
:1016A000D0ED0B1AB4EEE10AF1EE10FA04DD9FED75
:1016B000110A80ED080A0EE090ED060AD0ED0B1A33
:1016C000F1EE611AB4EEE10AF1EE10FA03D29FEDE9
:1016D000090A80ED080A90ED070AD0ED081A30EEED
:1016E000210AD0ED091A30EE210A80ED0A0A90EDA8
:1016F0000A0A704700000000C0ED0B1A80ED000AD6
:10170000C0ED010A80ED021A9FED062A80ED072A3E
:101710009FED042A80ED082A9FED022A80ED092A18
:101720007047000000000000B0EE401A31EE600A81
:1017300080ED060A90ED060AD0ED001A20EE210A8F
:1017400080ED070A90ED080AD0ED061A90ED012A07
:1017500001EE820A80ED080A90ED060AD0ED0B1A20
:10176000B4EEE10AF1EE10FA03DC1F4991F8B9106A
:1017700021B99FED1E0A80ED080A12E090ED060ADD
:10178000D0ED0B1AF1EE611AB4EEE10AF1EE10FAA7
:1017900003D3154991F8B91019B99FED140A80EDDA
:1017A000080A90ED060AD0ED0C1A30EE610AD0ED71
:1017B000021ABFEE002A61EE821A20EE210A80EDA5
:1017C000090A90ED060A80ED0C0A90ED070AD0EDAB
:1017D000081A30EE210AD0ED091A30EE210A80ED08
:1017E0000A0A90ED0A0A7047742C002400000000D9
:1017F000B0EE401A31EE600A80ED060A90ED060A5E
:10180000D0ED001A20EE210A80ED070A90ED080ABB
:10181000D0ED061A90ED012A01EE820A80ED080A49
:1018200090ED060AD0ED0B1AB4EEE10AF1EE10FAD3
:1018300003DC1F4991F8B91021B99FED1E0A80ED14
:10184000080A12E090ED060AD0ED0B1AF1EE611ACB
:10185000B4EEE10AF1EE10FA03D3154991F8B9108C
:1018600019B99FED140A80ED080A90ED060AD0ED33
:101870000C1A30EE610AD0ED021ABFEE002A61EEBA
:10188000821A20EE210A80ED090A90ED060A80ED09
:101890000C0A90ED070AD0ED081A30EE210AD0EDBF
:1018A000091A30EE210A80ED0A0A90ED0A0A704703
:1018B000742C002400000000B0EE401A31EE600AE3
:1018C00080ED060A90ED060AB5EEC00AF1EE10FAB8
:1018D00008DD90ED060ADFED2A1AB4EEE10AF1EE1A
:1018E00010FA0FD990ED060AB5EEC00AF1EE10FA23
:1018F0000CD290ED060ADFED231AB4EEE10AF1EE08
:1019000010FA03DB9FED200A80ED0A0A90ED060A2B
:10191000D0ED001A20EE210A80ED070A90ED080AAA
:10192000D0ED061A90ED012A01EE820A80ED080A38
:1019300090ED060AD0ED0B1AB4EEE10AF1EE10FAC2
:1019400004DD9FED110A80ED080A0EE090ED060A15
:10195000D0ED0B1AF1EE611AB4EEE10AF1EE10FAD5
:1019600003D29FED090A80ED080A90ED070AD0ED39
:10197000081A30EE210A80ED0A0A90ED0A0A704733
:1019800000009643000096C300000000B0EE401A2D
:1019900031EE600A80ED060A90ED060AD0ED001ADD
:1019A00020EE210A80ED070A90ED080AD0ED061A14
:1019B00090ED012A01EE820A80ED080A90ED060AF8
:1019C000D0ED0B1AB4EEE10AF1EE10FA03DC204977
:1019D00091F8B91021B99FED1F0A80ED080A12E0B5
:1019E00090ED060AD0ED0B1AF1EE611AB4EEE10AA1
:1019F000F1EE10FA03D3164991F8B91019B99FED19
:101A0000150A80ED080A90ED020AFFEE001A20EE9A
:101A1000210A1149D1ED001A70EEE11A20EE210AD7
:101A200080ED090A90ED060A80ED0C0A90ED070A98
:101A3000D0ED081A30EE210AD0ED091A30EE210A55
:101A400080ED0A0AC1ED000A90ED0A0A7047000015
:101A5000742C002400000000EC040024B0EE401AB6
:101A600031EE600A80ED060A90ED060AD0ED001A0C
:101A700020EE210A80ED070A90ED060AD0ED0B1A40
:101A8000B4EEE10AF1EE10FA1CDC254991F8B91028
:101A9000C1B190ED060AD0ED0B1AF1EE611AB4EE69
:101AA000E10AF1EE10FA0DD31D4991F8B91049B1D0
:101AB00090ED080AD0ED061A90ED012A01EE820A97
:101AC00080ED080A90ED060AB5EEC00AF1EE10FAB4
:101AD00003D19FED140A80ED080A90ED060AD0EDBF
:101AE0000C1A30EE610AD0ED021ABFEE002A61EE48
:101AF000821A20EE210A80ED090A90ED060A80ED97
:101B00000C0A90ED070AD0ED081A30EE210AD0ED4C
:101B1000091A30EE210A80ED0A0A90ED0A0A704790
:101B2000742C002400000000B0EE401A31EE600A70
:101B300080ED060A90ED060AD0ED001A20EE210A8B
:101B400080ED070A90ED060AB5EEC00AF1EE10FA34
:101B500002DD90ED060A03E090ED060AB1EE400AC0
:101B6000B7EEC02A9FED293BB4EEC32BF1EE10FA7D
:101B700003D3284991F8B91019B99FED270A80EDD0
:101B8000080A90ED060AB5EEC00AF1EE10FA02DD81
:101B900090ED060A03E090ED060AB1EE400AB7EEBA
:101BA000C02AB6EE003BB4EEC32BF1EE10FA09DD0D
:101BB00090ED080AD0ED061A90ED012A01EE820A96
:101BC00080ED080A90ED060AD0ED0C1A30EE610A9D
:101BD000D0ED021ABFEE002A61EE821A20EE210A31
:101BE00080ED090A90ED060A80ED0C0A90ED070AD7
:101BF000D0ED081A30EE210AD0ED091A30EE210A94
:101C000080ED0A0A90ED0A0A704700009A999999A6
:101C10009999B93F742C002400000000D2ED020A0B
:101C200092ED021AB6EE000A00EEC10AD2ED030AE6
:101C300092ED031A00EEC10AD0ED000A20EE200A50
:101C4000D2ED010A92ED021A60EE810A92ED001ABD
:101C5000D2ED031A41EE610A90ED011A00EE810AFD
:101C6000D2ED010A92ED031A60EE810A92ED001A9C
:101C7000D2ED021A41EE210A90ED021A00EE810A1D
:101C8000F0EE000A20EE200A81ED000A92ED010A32
:101C9000D2ED020A20EE200AD2ED000A92ED031ADC
:101CA00000EE810AD0ED000A60EE200A92ED011AE2
:101CB000D2ED011AB6EE000A01EE610AD2ED031A66
:101CC00092ED032AB0EE401A01EEC21AD0ED011ACD
:101CD000B0EE600A01EE210AD2ED020A92ED031A7B
:101CE00060EE810A92ED001AD2ED011A41EE610A0E
:101CF00090ED021A00EE810AF0EE000A20EE200AB2
:101D000081ED010A92ED010AD2ED030A20EE200ACC
:101D1000D2ED000A92ED021A00EEC10AD0ED000ADF
:101D200020EE200AD2ED020A92ED031A60EE810A3B
:101D300092ED001AD2ED011A41EE210A90ED011A3E
:101D400000EE810A92ED011AD2ED011AF6EE000AB8
:101D500041EE610A92ED021AD2ED021A41EE610AD9
:101D600090ED021A00EE810AF0EE000A20EE200A41
:101D700081ED020A7047000070B52DED028B06461A
:101D80000C4615462078AA2805D16078DD2803D1B5
:101D90000020F74988701CE2E079DD28FBD16078EB
:101DA0008011A0B9A078617801F03F0101EBC10278
:101DB00002EB011100EB810000EE100AB8EEC00A40
:101DC000DFEDEC0A80EE201A86ED031A1CE0607845
:101DD0000121B1EBA01F17D1A078617801F03F017C
:101DE00001EBC10202EB011100EB810000EE100AD1
:101DF000F8EEC00A9FEDDF1A80EE810AFFEE000ABE
:101E000020EE200A86ED030AE0788011A0B920793F
:101E1000E17801F03F0101EBC10202EB011100EB9F
:101E2000810000EE100AB8EEC00ADFEDD20A80EEA3
:101E3000201A86ED041A1CE0E0780121B1EBA01F06
:101E400017D12079E17801F03F0101EBC10202EBEB
:101E5000011100EB810000EE100AF8EEC00A9FEDC0
:101E6000C51A80EE810AFFEE000A20EE200A86EDF8
:101E7000040A607900EE100AB8EE400ADFEDBD0AF0
:101E800020EE200A86ED050AA07900EE100AB8EED1
:101E9000400ABCEEC00A10EE100A307696ED050A34
:101EA000DFEDB50A80EE201AB7EEC10A9FEDB31B35
:101EB00081EE002BB0EE428BB0EE480B13F0D8FA57
:101EC0009FEDB01B20EE010BB0EEC00BAF4880EDD4
:101ED000000B90ED000BB6EE001BB4EEC10BF1EE63
:101EE00010FA03D2B6EE000B80ED000B0020A849DB
:101EF000488096ED030AB1EE400AA64880ED000A3C
:101F000096ED040AA44880ED000A96ED050ADFED7F
:101F1000A30AB4EEE00AF1EE10FA05D29FEDA00A92
:101F2000A04880ED000A04E09FED9F0A9D4880EDE7
:101F3000000A9E48006A401C9C4908628C48007850
:101F400000287AD195ED000A99480068D0ED070A7B
:101F500030EE600AB5EEC00AF1EE10FA08DD95ED3C
:101F6000000A93480068D0ED070A30EE600A09E0E5
:101F700095ED000A8E480068D0ED070A30EE600A41
:101F8000B1EE400ADFED880AB4EEE00AF1EE10FA95
:101F90002DD295ED080A86480068D0ED090A30EE8A
:101FA000600AB5EEC00AF1EE10FA08DD95ED080AF8
:101FB0007F480068D0ED090A30EE600A09E095ED2F
:101FC000080A7B480068D0ED090A30EE600AB1EEDD
:101FD000400AB7EEC00A6D4890ED001BB4EEC10B8D
:101FE000F1EE10FA03D201206149887002E000206E
:101FF0005F4988706E48006890ED090A6D48D0ED21
:10200000000A644890ED001A00EE810A85ED050A89
:102010006748006890ED070A6748D0ED000A5E48FF
:1020200090ED001A00EE810A85ED000A0020634958
:1020300008604F490871CCE0FFE74D48007801285F
:1020400003D04B48007802287ED15D480068401CD0
:102050005B49086046480079012805D15748006867
:10206000401C564908605BE095ED000A5048006846
:10207000D0ED070A30EE600AB5EEC00AF1EE10FAB4
:1020800008DD95ED000A4A480068D0ED070A30EEF9
:10209000600A09E095ED000A45480068D0ED070A9E
:1020A00030EE600AB1EE400A3E48D0ED000AB4EED0
:1020B000E00AF1EE10FA33D295ED080A3C480068C8
:1020C000D0ED090A30EE600AB5EEC00AF1EE10FA62
:1020D00008DD95ED080A36480068D0ED090A30EEB3
:1020E000600A09E095ED080A31480068D0ED090A58
:1020F00030EE600AB1EE400A2A48D0ED000AB4EE94
:10210000E00AF1EE10FA0BD22C480068401C2B4973
:10211000086008460068052802DD0120144908719E
:1021200026480068462804DD00202449086010493C
:1021300008711F48006890ED090A1E48D0ED000A9A
:10214000144890ED001A00E03CE000EE810A85EDB5
:10215000050A1748006890ED070A1748D0ED000AF5
:102160000D4890ED001A00EE810A85ED000A30E07E
:10217000201600240000C84200007A449CC420B00D
:102180007268A13F6666666666A64C40F802002447
:102190006C3A0024D8020024DC0200240080BB45F5
:1021A000CDCC4C3F00030024CDCCCC3EA03A002443
:1021B000D8000024D4020024D0020024E00200242D
:1021C000F002002400200449086004490860044922
:1021D0000871BDEC028B70BDF0020024E002002407
:1021E000201600242DE9F04138488069401C374909
:1021F00088613748006890ED0A0ADFED360A20EE64
:10220000200ABDEEC00A10EE100A04B23048006881
:1022100090ED0B0ADFED2F0A20EE200ABDEEC00A7A
:1022200010EE100A05B22A48006890ED0C0ADFEDA6
:10223000290A20EE200ABDEEC00A10EE100A06B2EE
:102240002348006890ED0D0ADFED220A20EE200AF7
:10225000BDEEC00A10EE100A07B21F4890F85400F5
:102260000A2803DD00201D49086002E001201B4907
:102270000860AA201A49087014484068000E487087
:1022800012484068000C887010488088000AC870A6
:102290000E48007908711148007848718C71200A45
:1022A000C8710D72280A48728E72300AC8720F7394
:1022B000380A48730B4800788873DD20C8730874A7
:1022C0001122094809F04CF9BDE8F0819843002437
:1022D000D80000240060EA46602E00240403002495
:1022E000CC3A002420160024F40E002470B50446D5
:1022F0000D46034A21460348FFF73EFD002070BD0E
:10230000501600242016002410B50B46D0F868148F
:10231000D0F86044214401EB8101C90000EE101A9D
:10232000B8EEC00A00F5207181ED6F0A117801291D
:1023300002D01178022907D14FF496714D4C2160DB
:1023400001214D4C216006E04FF4FA71494C2160A7
:102350000521494C216090F88414002969D100F5C9
:10236000207191ED6F0AD1ED6C0A70EE600A42495E
:1023700091ED000AB8EEC00AF4EEC00AF1EE10FAD0
:1023800010D800F5207191ED6F0AD1ED6C0A30EE96
:10239000600AB5EEC00AF1EE10FA03DB0024C0F8C3
:1023A000444460E000F5207191ED6F0AD1ED6C0AB4
:1023B00030EE600AFAEE040AB4EEE00AF1EE10FA2A
:1023C00003D22E4CC0F844444DE000F5207191ED4D
:1023D0006F0AD1ED6C0A30EE600AF2EE040AB4EE38
:1023E000E00AF1EE10FA3EDDD0F87844C0F844443B
:1023F000B0F98A12322918DA90F85014012902D063
:102400001178012911D1B0F88814491CA0F888145A
:10241000B0F88814174C2468A14224DD012180F80B
:1024200084140021A0F888141DE00021A0F888146D
:1024300019E090F88414012915D1114CC0F84444D6
:10244000B0F88614491CA0F88614B0F88614B1F5CB
:10245000967F08DD0021C0F8601480F88414A0F88D
:102460008614C0F8681400F5207191ED6F0A81EDB3
:10247000700A10BD2C0100243001002454F2FFFF2B
:1024800078ECFFFF00BFFEE710B58CB004463022A9
:1024900021466846FDF76EFF03480FC80DF0AAFB02
:1024A00000200CB010BD0000A803002410B58EB0B1
:1024B0000446302221466846FDF75CFF08480FC8F5
:1024C0000DF098FB0748302221460C906846FDF736
:1024D00051FF03480FC810F0B5F900200EB010BD31
:1024E000B80300243C16002410B588B00446002030
:1024F000009001900220029001200390002004909F
:1025000005906946206803F0FCFD00220121206847
:1025100003F05AFD206804F084FB08B010BD0346A8
:10252000181D026851600A604860016000BF00BF6A
:10253000704730B589B005460C46206800900020F1
:10254000019002904FF40020039000200490059029
:10255000069007900890221D6946286803F088FDC0
:1025600010B1002009B030BD0120FBE71FB53E9C33
:102570004049009888422FD1B4F5007F14DDB4F5AE
:10258000017F11DC1198C0F30722A4F201203A491F
:1025900001F810201198C1B2A4F20120012202EB2F
:1025A00040023548815462E0B4F5017F5FDDB4F547
:1025B000027F5CDC1198C0F30722A4F205202F49AA
:1025C00001F810201198C1B2A4F20520012202EBFB
:1025D00040022A4881544AE029490098884246D15D
:1025E000B4F5007F14DDB4F5017F11DC1198C0F360
:1025F0000722A4F20120234901F810201198C1B24A
:10260000A4F20120012202EB40021E4881542EE078
:10261000B4F5017F14DDB4F5027F11DC1198C0F32D
:102620000722A4F20520184901F810201198C1B220
:10263000A4F20520012202EB40021348815416E067
:10264000B4F5027F13DDB4F5037F10DA1198C0F3FF
:102650000722A4F209200D4901F810201198C1B2F7
:10266000A4F20920012202EB400208488154002014
:1026700004B010BD040600241C0300242803002419
:10268000A4060024400300244C0300245803002423
:102690001FB53E9C3449009888422FD1B4F5017F84
:1026A00014DDB4F5027F11DC1198C0F30722A4F207
:1026B00005202E4901F810201198C1B2A4F205207E
:1026C000012202EB4002294881544AE0B4F5027F1E
:1026D00047DDB4F5037F44DA1198C0F30722A4F272
:1026E0000920234901F810201198C1B2A4F2092051
:1026F000012202EB40021E48815432E01D4900983D
:1027000088422ED1B4F5017F14DDB4F5027F11DCCF
:102710001198C0F30722A4F20520174901F81020F0
:102720001198C1B2A4F20520012202EB4002124826
:10273000815416E0B4F5027F13DDB4F5037F10DA9F
:102740001198C0F30722A4F209200C4901F81020C7
:102750001198C1B2A4F20920012202EB40020748FD
:102760008154002004B010BD040600242803002476
:1027700034030024A40600244C030024580300243E
:102780000FB410B50446208860819DF835009DF88F
:10279000341040EA012000B220819DF837109DF8E6
:1027A000360041EA002000B260809DF839109DF8A3
:1027B000380041EA002000B2A0809DF83A00A071E4
:1027C00020892080002010BC5DF814FB074B0268B4
:1027D0009A4202D1064A1060D160064B02689A42C2
:1027E00002D1054A1060D1607047000000A000408F
:1027F000A803002400A40040B803002430B50B4611
:102800006924E45C012C08D0424C94F8455094F8BB
:102810003D4015FB04F4012C03D1FAEE080AC0ED8B
:10282000000A3D4C2478012C0CD1DFED3C0A3C4CD5
:10283000C4ED000AFAEE0D0A3A4CC4ED000A00217C
:10284000002249E0FAEE000AB4EEE00AF1EE10FAD6
:102850001ED2F2EE0E0A324CC4ED000ADFED320A4F
:10286000304CC4ED000A0022491C6924E45C012CB0
:1028700008D0284C94F8455094F83D4015FB04F4DA
:10288000012C29D1294CD4ED000AC0ED000A23E027
:10289000F2EE000AB4EEE00AF1EE10FA10DD204C80
:1028A000D4ED000AB2EE041A70EE810AC4ED000AFB
:1028B000FAEE0D0A1B4CC4ED000A0021521C0BE07D
:1028C000F3EE090A164CC4ED000AFAEE0D0A154C97
:1028D000C4ED000A00210022D0ED000A104C94ED56
:1028E000001AF4EEC10AF1EE10FA04DBD4ED000A8E
:1028F000C0ED000A0DE0D0ED000A0A4C94ED001A7C
:10290000F4EEC10AF1EE10FA03D8D4ED000AC0EDDE
:10291000000A30BD18430024201600240000344271
:102920002C00002430000024000048C2480000248D
:10293000B0EE401A5A22525A01EE902AF8EE611A6D
:102940009FED282AC1EE822AB0EE620A5C22535A19
:10295000254AB2F86E209A1A01EE902AB8EEE12BC1
:10296000B1EE063B82EE034BF7EEC41BF0EE610ABC
:1029700070EE201A9FED1D2A61EE821A9FED1C2A2F
:1029800061EE821A9FED1B2A61EE821A9FED1A2AD0
:10299000C1EE822AFCEEE21A11EE902AC0F87824E9
:1029A000164A1278012A03D142F22832C0F878245C
:1029B000D0F87824B2F57A7F02D20022C0F87824C9
:1029C00042F23413D0F878249A4205D800BF5C2232
:1029D000525AB2F57A6F03DD42F23412C0F878240D
:1029E000704700000000C842602E00240000204212
:1029F0000000B442000070420000B44320160024DE
:102A000090ED010AD1ED020A20EE200AD0ED020A73
:102A100091ED011A00EEC10A82ED000A90ED020A62
:102A2000D1ED000A20EE200AD0ED000A91ED021A45
:102A300000EEC10A82ED010A90ED000AD1ED010A13
:102A400020EE200AD0ED010A91ED001A00EEC10A35
:102A500082ED020A7047000010B5024802F0A4F8A7
:102A600010BD00005412002410B5024802F09CF87A
:102A700010BD00007410002410B5024802F094F854
:102A800010BD0000CC12002410B5024802F08CF8F2
:102A900010BD00004413002410B5024802F084F871
:102AA00010BD0000BC13002410B5024802F07CF8F1
:102AB00010BD00003414002410B5024802F074F870
:102AC00010BD0000AC14002410B5024802F06CF8F0
:102AD00010BD00002415002410B5024802F064F86F
:102AE00010BD0000840F002410B5024802F05CF80D
:102AF00010BD0000FC0F002410B5024802F054F88D
:102B000010BD00006408002410B5024802F04CF823
:102B100010BD0000DC08002410B5024802F044F8A3
:102B200010BD0000EC10002410B5024802F03CF883
:102B300010BD00006411002410B5024802F034F802
:102B400010BD0000DC1100240146374A086890429D
:102B500049D0354A18320868904244D0324A30325F
:102B6000086890423FD0304A4832086890423AD0D4
:102B70002D4A60320868904235D02B4A7832086876
:102B8000904230D0284A9032086890422BD0264A92
:102B9000A8320868904226D0244A0868904222D081
:102BA000224A1832086890421DD0204A3032086804
:102BB000904218D01D4A48320868904213D01B4AF0
:102BC0006032086890420ED0184A78320868904205
:102BD00009D0164A90320868904204D0134AA832AD
:102BE0000868904201D1012000E00020B0B10A78CD
:102BF000103A1823B2FBF3F000F007020C4B9A5C7A
:102C0000CA65032805D90A686FF30902121D8A658F
:102C100003E00A686FF309028A6503E0086820F0A0
:102C2000FF008865886D7047100002401004024064
:102C3000989C010810B502682B4C0368A34222D06F
:102C4000294C14340368A3421DD0274C2834036850
:102C5000A34218D0244C3C340368A34213D0224C26
:102C600050340368A3420ED01F4C64340368A3425F
:102C700009D01D4C78340368A34204D01A4C8C341C
:102C80000368A34201D1012300E000238BB1037844
:102C9000083B1424B3FBF4F1144B03EB81030366EC
:102CA000124B8033436601F01F040123A340836667
:102CB00018E00378103B1824B3FBF4F10C4B9A4254
:102CC00004D80B4BA83B9A4200D30831094B03EBC5
:102CD00081030366074B8033436601F01F04012321
:102CE000A340836610BD00000854025800580258E3
:102CF000B8040240000802400179A9B3082940D86D
:102D0000204B02689A4222D01E4B143302689A422A
:102D10001DD01C4B283302689A4218D0194B3C3303
:102D200002689A4213D0174B503302689A420ED071
:102D3000144B643302689A4209D0124B783302680C
:102D40009A4204D00F4B8C3302689A4201D101227F
:102D500000E000224AB14A1E0B4B03EB8202C2661E
:102D6000094A4032026708E00BE04A1E074B03EBBA
:102D70008202C266054A403202674A1E012393401E
:102D8000436770470854025800590258000902402E
:102D9000014600208A69D2B98A6A32B1012A0DD06F
:102DA000022A03D0032A10D10EE000BFCA6A02F043
:102DB0008072B2F1807F00D1012007E0CA6AB2F1CF
:102DC000C07F00D1012001E000E000BF36E08A6949
:102DD000B2F5005F1BD18A6A32B1012A07D0022AFC
:102DE00003D0032A11D10AE000BF01200EE0CA6A15
:102DF00002F08072B2F1807F00D1012006E0CA6A41
:102E0000B2F1C07F00D1012000E000BF16E08A6A65
:102E100032B1012A05D0022A04D0032A0CD103E0E2
:102E200000BF00BF012008E0CA6A02F08072B2F160
:102E3000807F00D1012000E000BF00BF704700008C
:102E4000F0B5856D846D984F0668BE4270D0964F80
:102E500018370668BE426BD0934F30370668BE42C3
:102E600066D0914F48370668BE4261D08E4F6037BA
:102E70000668BE425CD08C4F78370668BE4257D099
:102E8000894F90370668BE4252D0874FA8370668F0
:102E9000BE424DD0854F0668BE4249D0834F183799
:102EA0000668BE4244D0814F30370668BE423FD0EC
:102EB0007E4F48370668BE423AD07C4F603706687E
:102EC000BE4235D0794F78370668BE4230D0774F52
:102ED00090370668BE422BD0744FA8370668BE42B2
:102EE00026D0734F0668BE4222D0714F1437066851
:102EF000BE421DD06E4F28370668BE4218D06C4FB8
:102F00003C370668BE4213D0694F50370668BE4250
:102F10000ED0674F64370668BE4209D0644F7837D9
:102F20000668BE4204D0624F8C370668BE4201D1AB
:102F3000012600E000263EB1D0E919767E60C66E1B
:102F400016B1D0E91C767E60574F0668BE4249D064
:102F5000554F18370668BE4244D0534F3037066885
:102F6000BE423FD0504F48370668BE423AD04E4F1F
:102F700060370668BE4235D04B4F78370668BE4290
:102F800030D0494F90370668BE422BD0464FA83705
:102F90000668BE4226D0454F0668BE4222D0434F47
:102FA00018370668BE421DD0404F30370668BE4213
:102FB00018D03E4F48370668BE4213D03B4F6037AB
:102FC0000668BE420ED0394F78370668BE4209D037
:102FD000364F90370668BE4204D0344FA837066893
:102FE000BE4201D1012600E00026DEB190F85C600F
:102FF00006F01F073F26BE40AE600668366826F41E
:10300000802607683E60066873608668402E04D19B
:103010000668B2600668F16044E00668B160066860
:10302000F2603FE0224F0668BE4222D0204F1437A4
:103030000668BE421DD01E4F28370668BE4218D013
:103040001B4F3C370668BE4213D0194F50370668F5
:10305000BE420ED0164F64370668BE4209D0144FE8
:1030600078370668BE4204D0114F8C370668BE42DE
:1030700001D1012600E00026A6B190F85C6006F0C0
:103080001F070126BE406660066873608668402E92
:1030900004D10668B2600668F16003E00668B160BA
:1030A0000668F260F0BD000010000240100402400B
:1030B000085402584FF4806141808180C1800181B1
:1030C00003218172C1724FF4806101800021C181AE
:1030D000002202824282A0F8C01064210A546521B5
:1030E0000A546A210A5467210A5468210A546C213F
:1030F0000A546D210A5469210A5466210A546B212D
:103100000A549FED070A80ED320A9FED050A80ED13
:10311000330A092180F8D010002180F8D2107047BE
:1031200000000000C27A032A01D1827A0A71704736
:10313000C27A012A03D1827A81F8802402E0002237
:1031400081F880247047000070B504460B4616468F
:10315000BF484069401CBE494861012084F8B8005E
:10316000002500BF1878597840EA0120C0F30A0012
:1031700040F2946188420ADC1878597840EA0120CC
:10318000C0F30A00B0F5B67F01DB681CC5B2587801
:10319000C010997840EA4110C0F30A0040F29461EF
:1031A00088420BDC5878C010997840EA4110C0F38F
:1031B0000A00B0F5B67F01DB681CC5B298788011B3
:1031C000D97840EA8100197940EA8120C0F30A00E9
:1031D00040F2946188420EDC98788011D97840EAF8
:1031E0008100197940EA8120C0F30A00B0F5B67F6A
:1031F00001DB681CC5B218794010597940EAC1104A
:10320000C0F30A0040F2946188420BDC1879401048
:10321000597940EAC110C0F30A00B0F5B67F01DB6E
:10322000681CC5B2587900110121B1EB900F0BD089
:10323000587900110221B1EB900F05D05879001197
:103240000321B1EB900F01D1681CC5B25879C0F3CE
:103250000110012809D05879C0F30110022804D0C8
:103260005879C0F30110032801D1681CC5B2062D9E
:103270007ED11878597840EA0120C0F30A006080B6
:103280005878C010997840EA4110C0F30A00A08035
:1032900098788011D97840EA8100197940EA812034
:1032A000C0F30A00E08018794010597940EAC11053
:1032B000C0F30A002081587900118008A072587963
:1032C000C0F30110E072187C597C40EA0120C0F381
:1032D0000A0020806088B0F57F7F06DD608840F2BC
:1032E0000441884201DA081F6080A088B0F57F7F22
:1032F00006DDA08840F20441884201DA081FA08060
:10330000E088B0F57F7F06DDE08840F20441884226
:1033100001DA081FE0802089B0F57F7F06DD208973
:1033200040F20441884201DA081F20819879D97956
:1033300040EA012000B2E081187A597A40EA01207F
:1033400001B22182987AD97A40EA012001B26182E1
:10335000197B2175597B6175B4F90E0046F2A811ED
:10336000884201DD0846E081B4F90E00394900E0E9
:1033700069E0884202DA49F65860E081B4F9100049
:1033800046F2A811884200DD2182B4F910003149CB
:10339000884202DA49F658612182987BD97B40EA5B
:1033A00001202083987B00F0010084F84C00987B7A
:1033B000C0F340014E200155987BC0F380014D20A1
:1033C0000155987BC0F3C0014F200155D87BC1093E
:1033D00059200155D87BC0F3801154200155D87B6A
:1033E000C0F3401157200155D87BC0F300115B207A
:1033F0000155D87BC0F3C0015A200155D87BC0F3DA
:10340000800156200155D87BC0F34001552001555D
:10341000D87B00F0010158200155987BC109532049
:103420000155987BC0F3801152200155987BC0F361
:10343000401151200155987BC0F3001150200155D7
:1034400020460EF023F8002084F8B80070BD00007C
:10345000A03A0024589EFFFF3EB504460D462A467A
:1034600021460F48FFF770FE0E480F490F4A104BD8
:10347000CDE9002102902A46214609480AF0B8FF0A
:103480000C4890ED010AF2EE040AB4EEE00AF1EE07
:1034900010FA02DD00200849088000203EBD00002F
:1034A000742C0024202200243C160024301C00240C
:1034B00020160024A03A00246C3A002408B50E48D7
:1034C0000078B8B901200C4908700C484068009099
:1034D0000B4900980968884204D20A480068401CD9
:1034E000084908600548406805490860002002490D
:1034F000087000BF08BD000038040024001000E080
:1035000028040024240400240C494868F0EE400AF2
:1035100000BF0A494968091A01EE101AF8EE411A6B
:10352000074991ED001AB8EE411A20EE811AF4EE27
:10353000C11AF1EE10FAECD370470000001000E061
:103540001804002410B52DED028B82B004460E48FD
:103550004068019020680199081A00EE100AF8EE00
:10356000400A0A4890ED000AB8EE400A80EE801A40
:10357000B0EE418A01982060FFF7A0FFB0EE480A44
:1035800002B0BDEC028B10BD001000E01804002456
:1035900010B52DED028B00F05DF80F4890ED000A9C
:1035A000B8EE400A808800EE900AF8EE600A9FEDBF
:1035B0000B1A00EE810A0848C08800EE900AF8EE67
:1035C000600A9FED071A00EE810AB0EE408AB0EE65
:1035D000480ABDEC028B10BD100400246F12833A20
:1035E000BD37863510B504461348006840F080703A
:1035F000114908600020114948600846006840F001
:10360000010008600E4860430E49086008460068E3
:103610004FF47A71B0FBF1F00B490860094800687B
:103620000749B0FBF1F0094908600020084908602B
:10363000FFF744FF10BD0000FCED00E0001000E0CB
:1036400040420F00180400241C040024200400241D
:103650002404002438B5294840680090FFF72EFF65
:10366000274800684FF0FF31A0FB0131009818187F
:1036700041F10001234A03C2234800232149026883
:1036800003C9FCF725FE214A03C220480CC81E4886
:1036900000680024A2FB001503FB005002FB04029B
:1036A0001848D0E90030591A60EB0200184AC2E904
:1036B000001016480068174908601748002314498D
:1036C000026803C9FCF704FE124988800846808816
:1036D0001149096841430E48D0E90030591A60F198
:1036E00000000E4AC2E900100D4800230B49026891
:1036F00003C9FCF7EDFD0749C88038BD001000E0A4
:10370000240400243004002418040024400400246D
:1037100048040024100400241C0400245004002445
:1037200020040024704790ED000AD1ED000A20EE3D
:10373000200AD0ED010A91ED011A00EE810AD0EDC8
:10374000020A91ED021A00EE810A7047D2ED020AD8
:1037500092ED021AB6EE000A00EEC10AD2ED030A9B
:1037600092ED031A00EEC10AD0ED000A20EE200A05
:10377000D2ED010A92ED021A60EE810A92ED001A72
:10378000D2ED031A41EE210A90ED011A00EE810AF2
:10379000D2ED010A92ED031A60EE810A92ED001A51
:1037A000D2ED021A41EE610A90ED021A00EE810A92
:1037B000F0EE000A20EE200A81ED000A92ED010AE7
:1037C000D2ED020A20EE200AD2ED000A92ED031A91
:1037D00000EEC10AD0ED000A60EE200A92ED011A57
:1037E000D2ED011AB6EE000A01EE610AD2ED031A1B
:1037F00092ED032AB0EE401A01EEC21AD0ED011A82
:10380000B0EE600A01EE210AD2ED020A92ED031A2F
:1038100060EE810A92ED001AD2ED011A41EE210A02
:1038200090ED021A00EE810AF0EE000A20EE200A66
:1038300081ED010A92ED010AD2ED030A20EE200A81
:10384000D2ED000A92ED021A00EE810AD0ED000AD4
:1038500020EE200AD2ED020A92ED031A60EE810AF0
:1038600092ED001AD2ED011A41EE610A90ED011AB3
:1038700000EE810A92ED011AD2ED011AF6EE000A6D
:1038800041EE610A92ED021AD2ED021A41EE610A8E
:1038900090ED021A00EE810AF0EE000A20EE200AF6
:1038A00081ED020A704700003E4890ED330AB5EE04
:1038B000C00AF1EE10FA0AD190ED320AB5EEC00A54
:1038C000F1EE10FA03D13848807901283ED137480B
:1038D000006818B135480068354908603548006807
:1038E000401C3449086008460068012805D1324868
:1038F00090ED000A314880ED000A9FED310A2E4814
:1039000080ED000A2F48D0ED1A0A2F4890ED000AEA
:103910009FED2E1A00EE810A80ED000A254800680E
:1039200042F2107190FBF1F201FB120050B92648EF
:1039300090ED000A264880ED000A9FED210A2248FA
:1039400080ED000A00201949086029E01948006844
:1039500018B1184800681F49086014480068401CE6
:103960001249086008460068012805D1164890ED04
:10397000000A194880ED000A9FED110A124880EDF7
:10398000000A1048D0ED1A0A0B4890ED000A9FED8E
:103990000F1A00EE810A80ED000A00200549086038
:1039A00070470000742C0024301C00249402002472
:1039B0009C0200249802002484020024880200242F
:1039C00000000000602E00247C0200246F12833A65
:1039D0008C020024A00200248002002472B600BFE2
:1039E000FEE7000010B5024802F0DEFC10BD00004A
:1039F0000406002410B5024802F0D6FC10BD0000F9
:103A0000A406002410B501464A6B0868D0F884006B
:103A10004FF6FC74A04340EA82000C68C4F88400AE
:103A20000868D0F8840020F47F04088F44EA00403E
:103A30000C68C4F88400886B02440868D0F88800D9
:103A40004FF6FC74A04340EA82000C68C4F888007A
:103A50000868D0F8880020F4FE04888F44EA00400B
:103A60000C68C4F88800C86B02EB40020868D0F804
:103A7000A0004FF6FC74A04340EA82000C68C4F832
:103A8000A0000868D0F8A00020F4FE044020405AAE
:103A900044EA00400C68C4F8A000D1E9104004FBDF
:103AA00000220868D0F8B0004FF6FC74A04340EA4A
:103AB00082000C68C4F8B0000868D0F8B00020F4A8
:103AC000FE04B1F8480044EA00400C68C4F8B000B5
:103AD000D1E9124004FB00220868D0F8AC004FF690
:103AE000FC74A04340EA82000C68C4F8AC00D1E941
:103AF000144004FB00220868D0F8F0004FF6FC7474
:103B0000A04340EA82000C68C4F8F0000868D0F8CE
:103B1000F00020F47C14B1F8580044EA00400C682E
:103B2000C4F8F000886D02EB40020868D0F8C000CD
:103B30004FF6FC74A04340EA82000C68C4F8C00051
:103B40000868D0F8C00020F47C14B1F85C0044EAA6
:103B500000400C68C4F8C0000868D0F8C00020F02D
:103B60007C5491F8600044EA00600C68C4F8C0001E
:103B70002A4C486B04EB8000C866CC6E886B04EB63
:103B800080040C670C6FC86B04EBC0044C67D1E970
:103B9000100460434C6F04EB80048C67D1E912047D
:103BA00060438C6F04EB8004CC67D1E9140460435C
:103BB000CC6F04EB8004802044504458886D04EBA3
:103BC000C004842044508C6EC86D604384246458C3
:103BD00004EB8004882044508C6E086E6043882477
:103BE000645804EB80049020445040580C4CA04290
:103BF00009D99831486840F020004860032001F856
:103C00009809012010BDCB6E02E0002018601B1D3A
:103C1000902040589842F8D80020F3E700AC0040CC
:103C2000FCD300402DE9F041054614461E46D1F86C
:103C300004C0BCF1000F0AD1D1F810C0D1F808803F
:103C40004CEA080CB1F800804CEA88430BE0D1F84C
:103C500010C04CF0804CD1F808804CEA080CD1F828
:103C600000804CEA080391F82080D1F81CC04CEA8F
:103C7000086CD1F818804CEA080CD1F814804CEA92
:103C8000080CD1F80C804CEA0807D5F868C00CFB8A
:103C900006FCD5F8848008EB8C021360121D1760B7
:103CA000121D002019E000F1030C14F80CC04FEABB
:103CB0000C6800F1020C14F80CC048EA0C4800F142
:103CC000010C14F80CC048EA0C2C14F800804CEAE3
:103CD000080CC2F800C0121D001DDFF81880D1F8D2
:103CE0000CC008EB1C4C9CF800C08445DBD8BDE838
:103CF000F08100003C9C010890ED050AB8EEC00A76
:103D000080ED010A90ED070AB8EEC00A80ED020AC4
:103D100090ED080AB8EEC00A80ED000A90ED090A9D
:103D2000B8EEC00A80ED030A90ED060AB8EEC00AAC
:103D300080ED040A00214161C1610162416281613B
:103D40007047000038B504460D4694F883040128F6
:103D50007ED1CC484068B0F5C87F79DD95F8B900D0
:103D6000012804D0C84890F845000128F0D19FED03
:103D7000C70AC74880ED000AC6480068401CC5490C
:103D8000086008460068B0F57A7F02DD4FF47A706B
:103D90000860C1480068BF49096848434FF47A7118
:103DA00090FBF1F000EE100AB8EEC00A84ED500A64
:103DB000BA4800684042B749096848434FF47A71ED
:103DC00090FBF1F000EE100AB8EEC00A84ED9F0AF5
:103DD000B4F98A0200EE100AB8EEC00ADFEDB00AAC
:103DE00020EE200ADFEDAF0A20EE200AAE4880ED7B
:103DF000000A90ED000AB7EEC00AB0EEC00B9FEDCE
:103E0000AB1BB4EEC10BF1EE10FA03D29FED9F0A8B
:103E100080ED000A04F5207090ED6C0AA248D0ED08
:103E2000000A30EE200A04F5207080ED6C0AA14AE9
:103E300029462046FEF768FA01200090D4ED500A8A
:103E4000FDEEE00A10EE900A03B2B4F9120000E0B1
:103E500044E000EE900AF8EEE00AB0EE600A04F5E5
:103E600082721146084600F02DF9BDEEC00A84EDBD
:103E70000F0A01200090D4ED9F0AFDEEE00A10EE3B
:103E8000900A03B2B4F94E0100EE900AF8EEE00A8F
:103E9000B0EE600A04F510721146084600F012F9FF
:103EA000BDEEC00A84ED5E0A02200090B4F844041E
:103EB00003B2B4F98A0200EE900AF8EEE00AB0EE1E
:103EC000600A04F57D7204F56E7104F55F7000F010
:103ED000F9F8BDEEC00A84EDAD0AA5E095F8B90089
:103EE00038B194F8830420B1674890F84500002861
:103EF000F3D1002067490860B4F91200002802DD00
:103F0000B4F9120002E0B4F9120040421E287CDB32
:103F1000B4F94E01002802DDB4F94E0102E0B4F913
:103F20004E0140421E2878DB594890ED000AB7EE5A
:103F3000C00A594890ED001AB8EEC11B9FED5E2BE8
:103F400001EE020BB7EEC00B514880ED000AD0ED38
:103F5000000A514890ED000AB8EEC00AF4EEC00A1B
:103F6000F1EE10FA06DB90ED000AB8EEC00A484800
:103F700080ED000A484890ED000AB8EEC00A4448B7
:103F8000D0ED000A30EE600A84ED500A4348006824
:103F9000404200EE100AB8EEC00A3D48D0ED000ADB
:103FA00030EE200A84ED9F0A01200090D4ED500AE3
:103FB000FDEEE00A10EE900A03B2B4F9120000EE32
:103FC000900AF8EEE00AB0EE600A04F5827211463B
:103FD000084600F077F8BDEEC00A84ED0F0A012014
:103FE0000090D4ED9F0AFDEEE00A10EE900A03B2B5
:103FF000B4F94E0100EE900AF8EEE00AB0EE600A65
:1040000004F510721146084600E006E000F05AF888
:10401000BDEEC00A84ED5E0A03E00021E163C4F84E
:1040200078110021C4F8B412D4ED5E0AF8EEE00A6B
:10403000B0EE600ADFED220AFCF760FCBDEEC00ABC
:1040400084ED5E0AD4ED0F0AF8EEE00AB0EE600AE5
:10405000DFED1B0AFCF752FCBDEEC00A84ED0F0A2F
:1040600004F10800E16B0BF001FD04F5A270D4F837
:1040700078110BF0FBFC04F52070D4F8B4120BF0AF
:10408000F5FC38BD984300241843002400000000CC
:10409000380100243401002440010024440100249C
:1040A0006F12833A3ED08A3D3C010024000000405C
:1040B000E17A843F201600242D431CEBE2364A3F70
:1040C00000606A462DE9F0412DED028B04468846DA
:1040D0001746B0EE408A1D46089E012E75D100EEAF
:1040E000105AB8EEC00A30EE480A84ED060A94ED84
:1040F000060AD4ED000A20EE200A84ED070A94EDAA
:10410000060AD4ED0B0AB4EEE00AF1EE10FA14D26E
:1041100094ED060AD4ED0B0AF1EE600AB4EEE00A63
:10412000F1EE10FA09DD94ED080AD4ED060A94EDDB
:10413000011A00EE810A84ED080A1DB99FED5D0A9F
:1041400084ED080A94ED080ADFED5B0AB4EEE00A9C
:10415000F1EE10FA03DD9FED580A84ED080A94EDA4
:10416000080ADFED560AB4EEE00AF1EE10FA03D2C7
:104170009FED520A84ED080A94ED070AD4ED080A6F
:1041800030EE200A84ED0A0A94ED0A0ADFED4C0AAB
:10419000B4EEE00AF1EE10FA03DD9FED490A84ED7A
:1041A0000A0A94ED0A0ADFED470AB4EEE00AF1EEDE
:1041B00010FA03D29FED430A84ED0A0A94ED0A0A2D
:1041C000BDEC028BBDE8F081FFE7022E5ED100EE70
:1041D000105AB8EEC00A30EE480A84ED060A94ED93
:1041E000060AB5EEC00AF1EE10FA02DD94ED060AF9
:1041F00003E094ED060AB1EE400ADFED330AB4EEB7
:10420000E00AF1EE10FA03D29FED2A0A84ED060AC5
:1042100094ED060AD4ED000A20EE200A84ED070A88
:104220001DB99FED240A84ED080A94ED080ADFED1C
:10423000270AB4EEE00AF1EE10FA03DD9FED1E0A44
:1042400084ED080A94ED080ADFED210AB4EEE00AD5
:10425000F1EE10FA03D29FED190A84ED080A94EDED
:10426000060AD4ED020A20EE200A84ED090A94ED34
:10427000070AD4ED080A30EE200AD4ED090A30EE20
:10428000200A84ED0A0A94ED0A0A99E7032E0DD15B
:10429000F0EE480A00EE105AB8EEC00A3846FDF7B4
:1042A000DDF984ED0A0A94ED0A0A89E79FED010A17
:1042B00086E700000000000000007A4400007AC495
:1042C00000008046000080C60000FA4300009644CB
:1042D000000096C430B5034613B94FF6FF7030BDE9
:1042E00009E013F8014B82EA0400C0B2054D35F82D
:1042F000100080EA2222081EA1F10101F1D110462E
:10430000EDE70000AA96010830B5034605E013F872
:10431000010B80EA02040448025D081EA1F10101BC
:10432000F5D1104630BD0000A99501082DE9F041F6
:10433000044602F0ADFD804614B90120BDE8F081CD
:1043400094F83500022808D08020606500BF002066
:1043500084F8340000BF0120F0E7FE49206888425D
:1043600049D0FC4918312068884244D0F94930319D
:10437000206888423FD0F7494831206888423AD0C7
:10438000F44960312068884235D0F249783120689C
:10439000884230D0EF499031206888422BD0ED49D7
:1043A000A8312068884226D0EB492068884222D074
:1043B000E9491831206888421DD0E749303120682A
:1043C000884218D0E44948312068884213D0E24935
:1043D0006031206888420ED0DF49783120688842F9
:1043E00009D0DD4990312068884204D0DA49A831EB
:1043F0002068884201D1012000E0002068B12068D7
:10440000006820F01E00216808602068406920F0E4
:10441000800021684861256806E02068006820F077
:104420000E00216808602568CA492068884270D05B
:10443000C8491831206888426BD0C649303120689D
:10444000884266D0C34948312068884261D0C1495A
:104450006031206888425CD0BE497831206888424B
:1044600057D0BC4990312068884252D0B949A83110
:10447000206888424DD0B8492068884249D0B64962
:1044800018312068884244D0B349303120688842CE
:104490003FD0B1494831206888423AD0AE496031B6
:1044A0002068884235D0AC4978312068884230D0C5
:1044B000A9499031206888422BD0A749A8312068AB
:1044C000884226D0A5492068884222D0A3491431C9
:1044D000206888421DD0A14928312068884218D020
:1044E0009E493C312068884213D09C495031206855
:1044F00088420ED0994964312068884209D0974992
:1045000078312068884204D094498C3120688842F0
:1045100001D1012000E0002028B1206E006820F4C5
:104520008070216E08608B492068884249D0894993
:1045300018312068884244D086493031206888424A
:104540003FD084494831206888423AD0814960315F
:104550002068884235D07F4978312068884230D041
:104560007C499031206888422BD07A49A831206854
:10457000884226D078492068884222D0764918316E
:10458000206888421DD0744930312068884218D094
:10459000714948312068884213D06F4960312068E2
:1045A00088420ED06C4978312068884209D06A4927
:1045B00090312068884204D06749A8312068884239
:1045C00006D12068006820F001002168086005E03D
:1045D0002068006820F001002168086011E002F006
:1045E00057FCA0EB080005280BD9202060650320AC
:1045F00084F8350000BF002084F8340000BF01209B
:104600009CE6286800F001000028E8D151492068A4
:10461000884249D04F4918312068884244D04D49DA
:104620003031206888423FD04A494831206888426A
:104630003AD0484960312068884235D045497831C0
:104640002068884230D043499031206888422BD07E
:104650004049A8312068884226D03F4920688842D6
:1046600022D03D491831206888421DD03A49303166
:104670002068884218D0384948312068884213D0D1
:1046800035496031206888420ED03349783120683E
:10469000884209D0304990312068884204D02E49A0
:1046A000A8312068884201D1012000E0002040B1FB
:1046B000A66D94F85C0000F01F013F208840B060B8
:1046C00007E0A76D94F85C0000F01F01012088400E
:1046D000786020492068884276D01E4918312068C9
:1046E000884271D01B493031206888426CD019490A
:1046F00048312068884267D0164960312068884276
:1047000062D014497831206888425DD011499031D7
:104710002068884258D00F49A8312068884253D079
:104720000D49206888424FD00B49183120688842D3
:104730004AD0094930312068884245D0064948317D
:104740002068884240D004496031206888423BD0CC
:10475000014905E0100002401004024008540258CC
:104760007831206888422FD02549206888422BD094
:10477000234918312068884226D02249206888427F
:1047800022D020491431206888421DD01D4928318B
:104790002068884218D01B493C312068884213D0D9
:1047A00018495031206888420ED01649643120687B
:1047B000884209D0134978312068884204D01149D1
:1047C0008C312068884201D1012000E0002068B1CE
:1047D000D4E919104860E06E40B1E06E006820F442
:1047E0008070E16E0860D4E91C104860012084F8F4
:1047F000350000BF002084F8340000BF00BF9DE5F5
:10480000A00402400854025870B504460CB90120B7
:1048100070BD94F83500022803D080206065012027
:10482000F6E7DC492068884249D0DA491831206827
:10483000884244D0D7493031206888423FD0D5499A
:104840004831206888423AD0D24960312068884295
:1048500035D0D04978312068884230D0CD49903168
:10486000206888422BD0CB49A8312068884226D0C6
:10487000C9492068884222D0C74918312068884237
:104880001DD0C54930312068884218D0C24948310E
:104890002068884213D0C0496031206888420ED019
:1048A000BD4978312068884209D0BB4990312068E1
:1048B000884204D0B849A8312068884201D101203B
:1048C00000E00020F0B3042084F83500B1492068EE
:1048D00088424BD0AF4918312068884246D0AD4954
:1048E00030312068884241D0AA4948312068884246
:1048F0003CD0A84960312068884237D0A54978313A
:104900002068884232D0A3499031206888422DD057
:10491000A049A8312068884228D09F492068884251
:1049200024D09D491831206888421FD09A493031DF
:10493000206888421AD0984948312068884215D0AA
:10494000954900E020E06031206888420ED092490D
:1049500078312068884209D08F4990312068884298
:1049600004D08D49A8312068884206D120680068AB
:1049700020F001002168086009E12068006820F04B
:1049800001002168086002E12068006820F00E0044
:10499000216808607F492068884249D07D491831E4
:1049A0002068884244D07B493031206888423FD01B
:1049B00078494831206888423AD076496031206889
:1049C000884235D0734978312068884230D07149A7
:1049D0009031206888422BD06E49A83120688842E7
:1049E00026D06D492068884222D06B491831206852
:1049F00088421DD0684930312068884218D0664905
:104A000048312068884213D0634960312068884269
:104A10000ED0614978312068884209D05E499031D2
:104A20002068884204D05C49A8312068884206D1B9
:104A30002068006820F001002168086005E0206817
:104A4000006820F00100216808605249206888420F
:104A500070D050491831206888426BD04D493031B0
:104A60002068884266D04B4948312068884261D02E
:104A700048496031206888425CD0464978312068D6
:104A8000884257D0434990312068884252D04149EA
:104A9000A831206888424DD03F492068884249D0DB
:104AA0003D4918312068884244D03B493031206864
:104AB00088423FD038494831206888423AD0364948
:104AC00060312068884235D0334978312068884287
:104AD00030D031499031206888422BD02E49A831FE
:104AE0002068884226D02D492068884222D02B4950
:104AF0001431206888421DD0284928312068884216
:104B000018D026493C312068884213D023495031BF
:104B1000206888420ED0214964312068884209D03B
:104B20001E4978312068884204D01C498C312068A5
:104B3000884201D1012000E00020D8B1206E006839
:104B400020F48070216E0860A56D94F85C0000F080
:104B50001F01012088406860D4E919104860E06EA8
:104B600040B1E06E006820F48070E16E0860D4E926
:104B70001C104860012084F8350000BF002084F834
:104B8000340000BF206D10B12046216D8847002001
:104B90003EE6000010000240100402400854025893
:104BA0000146486D704700002DE9F84F044600208B
:104BB0000090FE4800684FF41651B0FBF1FAA66D64
:104BC000D4F858803768D8F80090F94920688842AE
:104BD00049D0F74918312068884244D0F44930312F
:104BE000206888423FD0F2494831206888423AD054
:104BF000EF4960312068884235D0ED49783120682E
:104C0000884230D0EA499031206888422BD0E84968
:104C1000A8312068884226D0E6492068884222D000
:104C2000E4491831206888421DD0E24930312068BB
:104C3000884218D0DF4948312068884213D0DD49C6
:104C40006031206888420ED0DA4978312068884285
:104C500009D0D84990312068884204D0D549A8317C
:104C60002068884201D1012000E0002000287DD08A
:104C700094F85C0000F01F010820884038400028AC
:104C800068D0CB492068884249D0C949183120688A
:104C9000884244D0C6493031206888423FD0C44958
:104CA0004831206888423AD0C14960312068884242
:104CB00035D0BF4978312068884230D0BC49903126
:104CC000206888422BD0BA49A8312068884226D073
:104CD000B8492068884222D0B649183120688842F5
:104CE0001DD0B44930312068884218D0B1494831CC
:104CF0002068884213D0AF496031206888420ED0C6
:104D0000AC4978312068884209D0AA49903120689E
:104D1000884204D0A749A8312068884204D120687D
:104D2000006800F0040003E02068006800F008005C
:104D300080B12068006820F004002168086094F8C1
:104D40005C0000F01F0108208840B060606D40F0FA
:104D50000100606594F85C0000F01F0101208840AC
:104D60003840E8B392492068884200E0B7E24BD06F
:104D70008F4918312068884246D08D4930312068EB
:104D8000884241D08A494831206888423CD08849CD
:104D900060312068884237D0854978312068884260
:104DA00032D083499031206888422DD08049A83183
:104DB0002068884228D07F492068884224D07D49D5
:104DC0001831206888421FD07A49303120688842E3
:104DD0001AD0784948312068884215D0754900E0DA
:104DE00026E06031206888420ED072497831206810
:104DF000884209D06F4990312068884204D06D49BB
:104E0000A8312068884204D12068406900F0800001
:104E100002E020680068002050B194F85C0000F0C7
:104E20001F0101208840B060606D40F002006065A5
:104E300094F85C0000F01F01042088403840E8B37B
:104E40005B49206888424BD0594918312068884214
:104E500046D0574930312068884241D054494831C2
:104E6000206888423CD0524960312068884237D05F
:104E70004F4978312068884232D04D4990312068BE
:104E800088422DD04A49A8312068884228D0494913
:104E90002068884224D047491831206888421FD0B2
:104EA00044493031206888421AD04249483120684C
:104EB000884215D03F496031206800E024E08842F4
:104EC0000ED03C4978312068884209D03949903168
:104ED0002068884204D03749A8312068884204D12C
:104EE0002068006800F0020002E0206800680020EE
:104EF00050B194F85C0000F01F0104208840B060BD
:104F0000606D40F00400606594F85C0000F01F01E3
:104F1000102088403840E8B325492068884251D0A5
:104F200023491831206888424CD02149303120680B
:104F3000884247D01E4948312068884242D01C49E7
:104F40006031206888423DD0194978312068884214
:104F500038D0174990312068884233D01449A8319D
:104F6000206888422ED01349206888422AD01149EF
:104F700018312068884225D00E4930312068884297
:104F800020D00C494831206888421BD00949603143
:104F9000206800E04DE0884214D00649783120684E
:104FA00088420FD003499031206805E0F0050024C5
:104FB0001000024010040240884203D0FE492068DD
:104FC000884204D12068006800F0080003E02068EF
:104FD000006800F0040060B394F85C0000F01F016A
:104FE00010208840B0602068006800F4802080B104
:104FF0002068006800F4002028B9206CC8B1204661
:10500000216C884715E0A06C98B12046A16C8847B8
:105010000FE02068006800F4807028B920680068FC
:1050200020F0080021680860206C10B12046216C37
:10503000884794F85C0000F01F0120208840384029
:1050400000287DD0DD492068884249D0DB491831ED
:105050002068884244D0D9493031206888423FD006
:10506000D6494831206888423AD0D4496031206816
:10507000884235D0D14978312068884230D0CF4934
:105080009031206888422BD0CC49A83120688842D2
:1050900026D0C949A8392068884221D0C64990390C
:1050A000206888421CD0C44978392068884217D0CB
:1050B000C14960392068884212D0BF494839206808
:1050C00088420DD0BC4930392068884208D0BA499E
:1050D00018392068884203D0B7492068884204D133
:1050E0002068006800F0100003E02068006800F00D
:1050F000020028B394F85C0000F01F0120208840D3
:10510000B06094F8350004282DD12068006820F0A4
:105110001600216808602068406920F0800021683E
:105120004861206C08B9A06C28B12068006820F0A4
:1051300008002168086094F85C0000F01F0100E09E
:105140003FE03F208840B060012084F8350000BF78
:10515000002084F8340000BF206D10B12046216D7E
:105160008847BDE8F88F2068006800F4802080B18F
:105170002068006800F4002028B9606C08B320465D
:10518000616C88471DE0E06BD8B12046E16B884731
:1051900017E02068006800F4807068B92068006833
:1051A00020F0100021680860012084F8350000BF5D
:1051B000002084F8340000BFE06B10B12046E16BA2
:1051C0008847606D00287AD0606D00F00100E8B378
:1051D000042084F835007949206888424BD077490B
:1051E00018312068884246D074493031206888429E
:1051F00041D072494831206888423CD06F496031C3
:105200002068884237D06D4978312068884232D092
:105210006A499031206888422DD06849A8312068B9
:10522000884228D06449A8392068884223D062493E
:105230009039206888421ED05F49783920688842BA
:1052400019D05D4960392068884200E040E012D002
:1052500059494839206888420DD05749303920686B
:10526000884208D0544918392068884203D05249EE
:105270002068884206D12068006820F0010021687B
:10528000086005E02068006820F0010021680860DF
:1052900000BF0098401C0090504500D905E02068F0
:1052A000006800F001000028F3D100BF206800680A
:1052B00000F0010020B1032084F8350003E00DE088
:1052C000012084F8350000BF002084F8340000BFBE
:1052D000E06C002802D02046E16C8847D9E13849CB
:1052E0002068884222D036491431206888421DD077
:1052F000334928312068884218D031493C31206830
:10530000884213D02E495031206888420ED02C4953
:1053100064312068884209D0294978312068884260
:1053200004D027498C312068884201D1012000E057
:1053300000200028D2D02068056894F85C0000F0B6
:105340001F010420884000EA0900D8B305F00400DA
:10535000C0B394F85C0000F01F0104208840C8F836
:10536000040005F4004080B105F4803030B9A06C31
:105370000028B3D02046A16C88478AE1206C002821
:10538000ACD02046216C884783E105F02000E8BBC3
:105390000A492068884253D0084918312068884259
:1053A0004ED0064930312068884249D003494831FF
:1053B0002068884244D006E0B80402401000024051
:1053C000085402584FE0B44960312068884237D011
:1053D000B14978312068884232D0AF499031206895
:1053E00088422DD0AC49A8312068884228D0AB49EA
:1053F0002068884224D0A9491831206888421FD0EB
:10540000A6493031206888421AD000E025E0A3493F
:1054100048312068884213D0A04960312068884212
:105420000ED09E4978312068884209D09B4990313E
:105430002068884204D09949A8312068884206D162
:105440002068006820F008002168086005E02068F6
:10545000006820F0040021680860206C10B320462A
:10546000216C884715E194F85C0000F01F010220D0
:10547000884000EA0900E8B305F00200D0B394F8D0
:105480005C0000F01F0102208840C8F8040005F409
:10549000004070B105F4803028B9606C10B120462E
:1054A000616C8847F5E0E06BF0B32046E16B88471C
:1054B000EFE005F02000C0BB7749206888424ED05D
:1054C000754918312068884249D0734930312068C5
:1054D000884244D070494831206888423FD06E49A4
:1054E0006031206888423AD06B4978312068884220
:1054F00035D000E04EE068499031206888422ED0D7
:105500006549A8312068884229D0644920688842CA
:1055100025D0624918312068884220D05F49303157
:10552000206888421BD001E06EE02DE05B494831E5
:105530002068884213D059496031206888420ED0D3
:10554000564978312068884209D054499031206802
:10555000884204D05149A8312068884206D1206889
:10556000006820F014002168086005E020680068E9
:1055700020F00A0021680860012084F8350000BF8F
:10558000002084F8340000BFE06BE8B32046E16BF4
:1055900088477EE094F85C0000F01F0108208840F6
:1055A00000EA090080B305F0080068B33A492068B2
:1055B00088424BD0384918312068884246D0364955
:1055C00030312068884241D03349483120688842D0
:1055D0003CD0314960312068884237D02E4978313B
:1055E0002068884232D02C499031206888422DD0E2
:1055F0002949A8312068884228D028492068884253
:1056000024D02649183100E043E0206888421DD0AC
:10561000224930312068884218D02049483120681A
:10562000884213D01D496031206888420ED01B4942
:1056300078312068884209D0184990312068884222
:1056400004D01649A8312068884206D12068006835
:1056500020F01C002168086005E02068006820F048
:105660000E002168086094F85C0000F01F01012022
:105670008840C8F804000120606584F8350000BF48
:10568000002084F8340000BFE06C10B12046E16CCB
:10569000884700BF65E5000010000240100402408A
:1056A0002DE9F041044601F0F3FB804614B90120D6
:1056B000BDE8F081FE492068884249D0FC49183194
:1056C0002068884244D0FA493031206888423FD06F
:1056D000F7494831206888423AD0F549603120685E
:1056E000884235D0F24978312068884230D0F0497C
:1056F0009031206888422BD0ED49A831206888423B
:1057000026D0EC492068884222D0EA491831206826
:1057100088421DD0E74930312068884218D0E549D9
:1057200048312068884213D0E249603120688842BD
:105730000ED0E04978312068884209D0DD499031A7
:105740002068884204D0DB49A8312068884201D112
:10575000012000E00020002873D0606A00B100BF83
:10576000022084F8350000BF002084F8340000BF18
:10577000CF492068884249D0CD49183120688842F5
:1057800044D0CB493031206888423FD0C8494831A5
:10579000206888423AD0C64960312068884235D0B6
:1057A000C34978312068884230D0C149903120689F
:1057B00088422BD0BE49A8312068884226D0BD49F6
:1057C0002068884222D0BB491831206888421DD009
:1057D000B84930312068884218D0B649483120682D
:1057E000884213D0B3496031206888420ED0B14955
:1057F00078312068884209D0AE49903120688842CB
:1058000004D0AC49A8312068884206D120680068DD
:1058100020F001002168086005E02068006820F0A1
:105820000100216808600DE001F032FBA0EB0800E8
:10583000052807D920206065032084F83500012061
:1058400036E76AE02068006800F001000028EBD12C
:105850002068056898480540D4E902010843216999
:10586000084361690843A1690843E1690843216A63
:1058700008430543606A042803D1D4E90B010843B7
:1058800005438E4800686FF30F00B0F1005F1DD331
:105890006068292802D360682E2811D960683F28E3
:1058A00002D3606842280BD96068472802D3606839
:1058B000482805D960684F2804D36068522801D869
:1058C000012000E0002008B145F480152068056043
:1058D0002068456925F00705606A0543606A042869
:1058E0000DD1A06A0543E06A48B12046FDF750FAA1
:1058F00028B140206065012084F83500D8E6206892
:1059000045612046FDF720F9064694F85C0000F05A
:105910001F013F208840B0609EE0694920688842AE
:1059200022D067491431206888421DD0644928314B
:105930002068884218D062493C312068884213D0E0
:105940005F495031206888420ED05D49643120683B
:10595000884209D05A4978312068884204D0584991
:105960008C312068884201D1012000E00020E0B3A2
:1059700053492068884222D0514914312068884216
:105980001DD04F4928312068884218D04C493C31FD
:105990002068884213D04A495031206888420ED08E
:1059A000474964312068884209D0454978312068E8
:1059B000884204D042498C312068884201D10120BC
:1059C00000E0002000B100BF022084F8350000BFD5
:1059D000002084F8340000BF20680568394805407D
:1059E000A068402802D1102106E02EE0A06880289F
:1059F00001D1C10100E00021E06841EAD001206945
:105A000041EAD001606941EAD001A06941EAD001D0
:105A1000E06941EAD001206A41EA1010054320689C
:105A2000056027492068401A1421B0FBF1F080007E
:105A3000E0652046FDF788F8074694F85C0000F022
:105A40001F0101208840786006E040206065032047
:105A500084F8350001202BE61549206888427FD064
:105A600013491831206888427AD0114930312068B2
:105A7000884275D00E4948312068884270D00C4960
:105A80006031206888426BD00949783120688842AB
:105A900066D0074990312068884261D00449A83116
:105AA000206888425CD003492068884258D00BE0C7
:105AB00010000240100402403F8010FE0010005C05
:105AC000085402580F00FEFF3B49183120688842F5
:105AD00046D0394930312068884241D03649483172
